S0130000556172745F73656E6465722E7372656395
S11300000C9456000C9473000C9473000C947300BD
S11300100C9473000C9473000C9473000C94730090
S11300200C9473000C9473000C9473000C94730080
S11300300C9473000C9473000C9473000C94730070
S11300400C9473000C9473000C9473000C94730060
S11300500C9473000C9402010C9473000C947300C0
S11300600C9473000C9473000C9432010C94F500FE
S11300700C9473000C9473000C9473000C94730030
S11300800C9473000C9473000C9473000C94730020
S11300900C9473000C9473000C9473000C94730010
S11300A00C9473000C9473000C94730011241FBE01
S11300B0CFEFDAE0DEBFCDBF11E0A0E0B1E0E8EAC7
S11300C0F2E002C005900D92A430B107D9F721E007
S11300D0A4E0B1E001C01D92A830B207E1F70E948C
S11300E03C010C9452010C9400001092CD0087E660
S11300F08093CC00E9ECF0E080818860808380818B
S113010080618083808180648083EAECF0E0808178
S11301108F7B808380818F77808380818F7E8083B3
S11301208081806280838081877F808380818260F8
S1130130808380818460808380818B7F8083089525
S113014084B58F7B84BD84B58F7784BD84B58E7F61
S113015084BD84B58D7F84BD85B5877F85BD85B518
S11301608E7F85BD85B58D7F85BD85B5846085BD54
S113017084E687BDEEE6F0E08081826080830895A6
S11301801092040180910001E5E0F1E08083218177
S11301908091010190910201822B818382812091BF
S11301A0010130910201832B8283E8ECF0E080812D
S11301B085FFFDCF809105018093CE00E8ECF0E04F
S11301C0808185FFFDCF809106018093CE00E8EC0D
S11301D0F0E0808185FFFDCF809107018093CE0000
S11301E095B181E0892785B908951F920F920FB6C2
S11301F00F92112416BC109204010F900FBE0F90A1
S11302001F9018951F920F920FB60F9211242F93DF
S11302103F934F935F936F937F938F939F93AF938A
S1130220BF93EF93FF9395B182E0892785B916BCFC
S1130230809104018F5F80930401853010F00E9447
S1130240C000FF91EF91BF91AF919F918F917F91EA
S11302506F915F914F913F912F910F900FBE0F902F
S11302601F9018951F920F920FB60F9211240F90A2
S11302700FBE0F901F901895E1E6F0E080E88083B0
S1130280108285B7806885BF85B7806885BF539A1B
S1130290209A289A219A299A0E9475000E94A00007
S10B02A07894FFCFF894FFCF1E
S10702A86A1B6A005F
S9030000FC
